:020000040800F2
:1000000000500020850D0008290D00082F0D000864
:10001000350D00083B0D0008410D000800000000F0
:10002000000000000000000000000000470D000874
:10003000530D0008000000005F0D00086B0D000864
:10004000CD0D0008CD0D0008CD0D0008CD0D000828
:10005000CD0D0008CD0D0008CD0D0008CD0D000818
:10006000CD0D0008CD0D0008CD0D0008CD0D000808
:10007000CD0D0008CD0D0008CD0D0008CD0D0008F8
:10008000CD0D0008CD0D0008CD0D0008CD0D0008E8
:10009000CD0D0008CD0D0008CD0D0008CD0D0008D8
:1000A000CD0D0008CD0D0008CD0D0008CD0D0008C8
:1000B000CD0D0008CD0D0008CD0D0008CD0D0008B8
:1000C000CD0D0008CD0D0008CD0D0008CD0D0008A8
:1000D000CD0D0008CD0D0008CD0D0008CD0D000898
:1000E000CD0D0008CD0D0008CD0D0008000000006A
:1000F0000000000000000000000000000000000000
:0C01000000000000000000005FF808F1A3
:10010C0010B5054C237833B9044B13B10448AFF345
:10011C0000800123237010BD0C00002000000000A3
:10012C00EC1B000808B5034B1BB103490348AFF3A4
:10013C00008008BD0000000010000020EC1B00082F
:10014C0080B582B000AF00F03DFE00F0EDFC00F099
:10015C0027FD0B237B607B680B2B00F2D18401A263
:10016C0052F823F0670A0008C1090008DB080008F0
:10017C00350800088107000859060008B305000877
:10018C000D0500081704000871030008CB020008D5
:10019C00A101000800228021D64801F001F90122BA
:1001AC004FF48071D34801F0FBF800224FF400713A
:1001BC00D04801F0F5F800224FF48061CD4801F0F1
:1001CC00EFF801224FF40061CA4801F0E9F800226F
:1001DC004FF48051C74801F0E3F800224FF400417E
:1001EC00C44801F0DDF801220121C34801F0D8F820
:1001FC0000220221C04801F0D3F800220821BE4899
:10020C0001F0CEF801228021BB4801F0C9F8002290
:10021C004FF48071B84801F0C3F800224FF400711C
:10022C00B54801F0BDF800224FF40051B24801F07E
:10023C00B7F801224FF48041AF4801F0B1F8002229
:10024C004FF40041AC4801F0ABF800224FF40051E0
:10025C00AA4801F0A5F801224FF48041A74801F00B
:10026C009FF800224FF40041A44801F099F80022B5
:10027C000121A04801F094F8002210219E4801F0C1
:10028C008FF8002220219C4801F08AF8012240219D
:10029C00994801F085F801224FF48061964801F0ED
:1002AC007FF800224FF40061934801F079F80022A6
:1002BC004FF48051904801F073F800F021BC0122FA
:1002CC0080218C4801F06CF800224FF48071894831
:1002DC0001F066F800224FF40071864801F060F8D6
:1002EC0001224FF48061834801F05AF801224FF447
:1002FC000061804801F054F800224FF480517D4891
:10030C0001F04EF800224FF400417A4801F048F811
:10031C0001224FF40051784801F042F800224FF4CA
:10032C008041754801F03CF800224FF400417248BE
:10033C0001F036F801224FF40051704801F030F80A
:10034C0001224FF400516D4801F02AF800224FF4BD
:10035C0000416A4801F024F800220121654801F0AF
:10036C001FF8CDE300228021624801F019F8002229
:10037C004FF480715F4801F013F800224FF40071C4
:10038C005C4801F00DF800224FF48061594801F0EF
:10039C0007F801224FF40061564801F001F80122E0
:1003AC004FF48051534800F0FBFF00224FF4004102
:1003BC00504800F0F5FF00224FF400514E4800F079
:1003CC00EFFF00224FF480414B4800F0E9FF002280
:1003DC004FF40041484800F0E3FF00224FF4005175
:1003EC00464800F0DDFF01224FF48041434800F005
:1003FC00D7FF01224FF40041404800F0D1FF00220A
:10040C0001213C4800F0CCFF7AE3002280213948DE
:10041C0000F0C6FF00224FF48071364800F0C0FF98
:10042C0001224FF40071334800F0BAFF00224FF460
:10043C008061304800F0B4FF00224FF400612D4879
:10044C0000F0AEFF01224FF480512A4800F0A8FFC3
:10045C0000224FF40041274800F0A2FF00224FF485
:10046C000051254800F09CFF00224FF480412248A7
:10047C0000F096FF01224FF400411F4800F090FF5E
:10048C0000224FF400511D4800F08AFF00224FF467
:10049C0080411A4800F084FF01224FF400411748B4
:1004AC0000F07EFF00220121124800F079FF0022AB
:1004BC001021114800F074FF012220210E4800F099
:1004CC006FFF002240210C4800F06AFF00224FF41D
:1004DC008061094800F064FF01224FF40061064876
:1004EC0000F05EFF00224FF48051034800F058FFEB
:1004FC0006E300BF00080140000C01400010014061
:10050C0001228021C54800F04BFF00224FF480717E
:10051C00C24800F045FF00224FF40071BF4800F0C4
:10052C003FFF01224FF48061BC4800F039FF0122EB
:10053C004FF40061B94800F033FF01224FF48051B1
:10054C00B64800F02DFF01224FF40041B34800F0F3
:10055C0027FF01224FF40051B14800F021FF002287
:10056C004FF48041AE4800F01BFF00224FF40041D5
:10057C00AB4800F015FF01224FF40051A94800F0E0
:10058C000FFF01224FF48041A64800F009FF012221
:10059C004FF40041A34800F003FF012201219F48C2
:1005AC0000F0FEFEACE2002280219C4800F0F8FE38
:1005BC0000224FF48071994800F0F2FE00224FF4B3
:1005CC000071964800F0ECFE00224FF480619348D5
:1005DC0000F0E6FE00224FF40061904800F0E0FECF
:1005EC0000224FF480518D4800F0DAFE01224FF4C6
:1005FC0000418A4800F0D4FE00224FF40051884894
:10060C0000F0CEFE00224FF48041854800F0C8FE79
:10061C0000224FF40041824800F0C2FE00224FF449
:10062C000051804800F0BCFE00224FF480417D4810
:10063C0000F0B6FE00224FF400417A4800F0B0FE04
:10064C0001220121754800F0ABFE59E20022802105
:10065C00724800F0A5FE01224FF480716F4800F043
:10066C009FFE00224FF400716C4800F099FE0022AE
:10067C004FF48061694800F093FE01224FF4006151
:10068C00664800F08DFE00224FF48051634800F064
:10069C0087FE00224FF40041604800F081FE0022EA
:1006AC0001215F4800F07CFE002202215C4800F032
:1006BC0077FE012208215A4800F072FE00228021A8
:1006CC00574800F06DFE00224FF48071544800F042
:1006DC0067FE01224FF40071514800F061FE0022C8
:1006EC004FF400514E4800F05BFE01224FF4804164
:1006FC004B4800F055FE00224FF40041484800F0F2
:10070C004FFE00224FF40051464800F049FE0122F2
:10071C004FF48041434800F043FE00224FF4004167
:10072C00404800F03DFE002201213C4800F038FE1C
:10073C00012210213A4800F033FE002220213848D3
:10074C0000F02EFE00224021354800F029FE002248
:10075C004FF48061324800F023FE00224FF4006118
:10076C002F4800F01DFE01224FF480512C4800F060
:10077C0017FEC5E101228021284800F011FE00225D
:10078C004FF48071254800F00BFE00224FF40071ED
:10079C00224800F005FE01224FF480611F4800F052
:1007AC00FFFD01224FF400611C4800F0F9FD00220E
:1007BC004FF48051194800F0F3FD00224FF4004132
:1007CC00164800F0EDFD01224FF40051144800F0E2
:1007DC00E7FD00224FF48041114800F0E1FD0022BA
:1007EC004FF400410E4800F0DBFD01224FF40051A4
:1007FC000C4800F0D5FD01224FF40051094800F0DF
:10080C00CFFD00224FF40041064800F0C9FD002244
:10081C000121024800F0C4FD72E100BF0008014054
:10082C00000C01400010014000228021BB4800F068
:10083C00B7FD00224FF48071B84800F0B1FD0022E2
:10084C004FF40071B54800F0ABFD00224FF480610D
:10085C00B24800F0A5FD01224FF40061AF4800F052
:10086C009FFD01224FF48051AC4800F099FD00220D
:10087C004FF40041A94800F093FD00224FF40051C1
:10088C00A74800F08DFD00224FF48041A44800F0F1
:10089C0087FD00224FF40041A14800F081FD0022A9
:1008AC004FF400519F4800F07BFD01224FF4804132
:1008BC009C4800F075FD01224FF40041994800F06E
:1008CC006FFD00220121954800F06AFD18E100221D
:1008DC008021924800F064FD00224FF480718F4813
:1008EC0000F05EFD01224FF400718C4800F058FDC1
:1008FC0000224FF48061894800F052FD00224FF431
:10090C000061864800F04CFD01224FF48051834871
:10091C0000F046FD00224FF40041804800F040FDFD
:10092C0000224FF400517E4800F03AFD00224FF4B3
:10093C0080417B4800F034FD01224FF4004178489F
:10094C0000F02EFD00224FF40051764800F028FDF7
:10095C0000224FF48041734800F022FD01224FF435
:10096C000041704800F01CFD002201216B4800F092
:10097C0017FD002201216A4800F012FD012202211C
:10098C00674800F00DFD00220821654800F008FDC5
:10099C0000228021624800F003FD01224FF4807197
:1009AC005F4800F0FDFC00224FF400715C4800F041
:1009BC00F7FCA5E001228021584800F0F1FC002250
:1009CC004FF48071554800F0EBFC00224FF400719D
:1009DC00524800F0E5FC01224FF480614F4800F0D2
:1009EC00DFFC01224FF400614C4800F0D9FC0122DD
:1009FC004FF48051494800F0D3FC01224FF40041E0
:100A0C00464800F0CDFC01224FF40051444800F060
:100A1C00C7FC00224FF48041414800F0C1FC002289
:100A2C004FF400413E4800F0BBFC01224FF4005152
:100A3C003C4800F0B5FC01224FF48041394800F0ED
:100A4C00AFFC01224FF40041364800F0A9FC012212
:100A5C000121324800F0A4FC52E0002280212F48F2
:100A6C0000F09EFC00224FF480712C4800F098FCA2
:100A7C0000224FF40071294800F092FC00224FF440
:100A8C008061264800F08CFC00224FF40061234862
:100A9C0000F086FC00224FF48051204800F080FCCE
:100AAC0001224FF400411D4800F07AFC00224FF463
:100ABC0000511B4800F074FC00224FF48041184890
:100ACC0000F06EFC00224FF40041154800F068FC69
:100ADC0000224FF40051134800F062FC00224FF446
:100AEC008041104800F05CFC00224FF400410D489E
:100AFC0000F056FC01220121084800F051FC00BF17
:100B0C007B68013B7B607B68002B01DC0B237B60EB
:100B1C004FF47A7000F0B8F9FFF71DBB00080140E4
:100B2C00000C01400010014080B590B000AF07F1FF
:100B3C00180328220021184601F04AF83B1D002218
:100B4C001A605A609A60DA601A610223BB61012351
:100B5C00BB621023FB6200237B6307F1180318466A
:100B6C0000F036FC0346002B01D000F09FF80F2359
:100B7C007B600023BB600023FB6000233B610023F0
:100B8C007B613B1D0021184600F0A2FE0346002BA2
:100B9C0001D000F08BF800BF4037BD4680BD00008F
:100BAC0080B588B000AF07F1100300221A605A60BC
:100BBC009A60DA60394B9B69384A43F010039361B1
:100BCC00364B9B6903F01003FB60FB68334B9B694E
:100BDC00324A43F020039361304B9B6903F02003AE
:100BEC00BB60BB682D4B9B692C4A43F0040393619B
:100BFC002A4B9B6903F004037B607B68274B9B6942
:100C0C00264A43F008039361244B9B6903F00803C5
:100C1C003B603B6800224FF46041214800F0C0FB70
:100C2C00002249F6F1711F4800F0BAFB00224FF682
:100C3C00FB711D4800F0B4FB4FF460433B61012392
:100C4C007B610023BB610223FB6107F11003194692
:100C5C00134800F021FA49F6F1733B6101237B61E3
:100C6C000023BB610223FB6107F1100319460D48F9
:100C7C0000F012FA4FF6FB733B6101237B610023FA
:100C8C00BB610223FB6107F110031946064800F013
:100C9C0003FA00BF2037BD4680BD00BF00100240E4
:100CAC000010014000080140000C014080B400AF6E
:100CBC0072B600BFFEE7000080B485B000AF154BE4
:100CCC009B69144A43F001039361124B9B6903F037
:100CDC000103BB60BB680F4BDB690E4A43F08053CA
:100CEC00D3610C4BDB6903F080537B607B680A4B50
:100CFC005B68FB60FB6823F0E063FB60FB6843F020
:100D0C000073FB60044AFB68536000BF1437BD4698
:100D1C0080BC7047001002400000014080B400AF5E
:100D2C00FEE780B400AFFEE780B400AFFEE780B40E
:100D3C0000AFFEE780B400AFFEE780B400AF00BFA9
:100D4C00BD4680BC704780B400AF00BFBD4680BCC0
:100D5C00704780B400AF00BFBD4680BC704780B503
:100D6C0000AF00F075F800BF80BD80B400AF00BFCD
:100D7C00BD4680BC70470000FFF7F7FF0B480C49DD
:100D8C000C4A002302E0D458C4500433C4188C42DB
:100D9C00F9D3094A094C002301E013600432A24242
:100DAC00FBD300F0F1FEFFF7CBF9704700000020F9
:100DBC000C000020301C00080C0000202C0000202F
:100DCC00FEE7000080B500AF084B1B68074A43F0F4
:100DDC0010031360032000F02BF90F2000F008F82B
:100DEC00FFF76AFF0023184680BD00BF00200240B9
:100DFC0080B582B000AF7860124B1A68124B1B782A
:100E0C0019464FF47A73B3FBF1F3B2FBF3F31846C4
:100E1C0000F035F90346002B01D001230EE07B686E
:100E2C000F2B0AD8002279684FF0FF3000F00BF935
:100E3C00064A7B681360002300E00123184608373C
:100E4C00BD4680BD000000200800002004000020EA
:100E5C0080B400AF054B1B781A46054B1B68134436
:100E6C00034A136000BFBD4680BC704708000020D9
:100E7C002800002080B400AF024B1B681846BD460A
:100E8C0080BC70472800002080B584B000AF78602B
:100E9C00FFF7F0FFB8607B68FB60FB68B3F1FF3FC6
:100EAC0005D00A4B1B781A46FB681344FB6000BF45
:100EBC00FFF7E0FF0246BB68D31AFA689A42F7D8EC
:100ECC0000BF00BF1037BD4680BD00BF080000202A
:100EDC0080B485B000AF78607B6803F00703FB60DB
:100EEC000C4BDB68BB60BA684FF6FF031340BB606A
:100EFC00FB681A02BB68134343F0BF6343F400332F
:100F0C00BB60044ABB68D36000BF1437BD4680BCCD
:100F1C00704700BF00ED00E080B400AF044BDB680D
:100F2C001B0A03F007031846BD4680BC704700BF80
:100F3C0000ED00E080B483B000AF03463960FB7174
:100F4C0097F90730002B0ADB3B68DAB20C4997F9AA
:100F5C0007301201D2B20B4483F800230AE03B683D
:100F6C00DAB20849FB7903F00F03043B1201D2B249
:100F7C000B441A7600BF0C37BD4680BC704700BFCF
:100F8C0000E100E000ED00E080B489B000AFF86053
:100F9C00B9607A60FB6803F00703FB61FB69C3F17E
:100FAC000703042B28BF0423BB61FB690433062B06
:100FBC0002D9FB69033B00E000237B614FF0FF3259
:100FCC00BB6902FA03F3DA43BB681A407B699A40A7
:100FDC004FF0FF317B6901FA03F3D9437B680B4077
:100FEC00134318462437BD4680BC704780B582B089
:100FFC0000AF78607B68013BB3F1807F01D30123A4
:10100C000FE00A4A7B68013B53600F214FF0FF3021
:10101C00FFF790FF054B00229A60044B07221A60E1
:10102C00002318460837BD4680BD00BF10E000E025
:10103C0080B582B000AF78607868FFF749FF00BFD9
:10104C000837BD4680BD80B586B000AF0346B96099
:10105C007A60FB7300237B61FFF75EFF78617A682F
:10106C00B9687869FFF790FF024697F90F3011467F
:10107C001846FFF75FFF00BF1837BD4680BD80B52F
:10108C0082B000AF78607868FFF7B0FF034618466F
:10109C000837BD4680BD000080B48BB000AF7860CF
:1010AC00396000237B6200233B6269E101227B6A89
:1010BC0002FA03F3FB613B681B68FA691340BB61DE
:1010CC00BA69FB699A4240F058813B685B689A4A5E
:1010DC0093425ED0984A934275D8984A934258D01E
:1010EC00964A93426FD8964A934252D0944A93426E
:1010FC0069D8944A93424CD0924A934263D8924A0C
:10110C00934246D0904A93425DD8122B2AD8122B88
:10111C0059D801A252F823F09F1100087911000848
:10112C008B110008CD110008D3110008D311000851
:10113C00D3110008D3110008D3110008D3110008F3
:10114C00D3110008D3110008D3110008D3110008E3
:10115C00D3110008D3110008D31100088111000825
:10116C0095110008794A934213D02CE03B68DB6858
:10117C003B6229E03B68DB6804333B6224E03B685C
:10118C00DB6808333B621FE03B68DB680C333B6277
:10119C001AE03B689B68002B02D104233B6213E0EE
:1011AC003B689B68012B05D108233B627B68FA697D
:1011BC001A6109E008233B627B68FA695A6103E013
:1011CC0000233B6200E000BFBB69FF2B01D87B68AA
:1011DC0001E07B6804337B61BB69FF2B02D87B6A1F
:1011EC009B0002E07B6A083B9B003B617B691A68B1
:1011FC000F213B6901FA03F3DB431A40396A3B695F
:10120C0001FA03F31A437B691A603B685B6803F0CD
:10121C008053002B00F0B1804D4B9B694C4A43F03E
:10122C00010393614A4B9B6903F00103BB60BB68EC
:10123C00484A7B6A9B08023352F82330FB607B6A76
:10124C0003F003039B000F2202FA03F3DB43FA685B
:10125C001340FB607B68404A934213D07B683F4A43
:10126C0093420DD07B683E4A934207D07B683D4A3F
:10127C00934201D1032306E0042304E0022302E09D
:10128C00012300E000237A6A02F0030292009340EB
:10129C00FA681343FB602F497B6A9B080233FA6898
:1012AC0041F823203B685B6803F48013002B06D0C5
:1012BC002D4B9A682C49BB6913438B6006E02A4B73
:1012CC009A68BB69DB43284913408B603B685B68B9
:1012DC0003F40013002B06D0234BDA682249BB69B8
:1012EC001343CB6006E0204BDA68BB69DB431E4935
:1012FC001340CB603B685B6803F40033002B06D0D3
:10130C00194B5A681849BB6913434B6006E0164BDE
:10131C005A68BB69DB43144913404B603B685B68FC
:10132C0003F48033002B21D00F4B1A680E49BB6994
:10133C0013430B6021E000BF00003210000031109D
:10134C0000002210000021100000121000001110EB
:10135C00001002400000014000080140000C014058
:10136C000010014000140140000401400B4B1A68AE
:10137C00BB69DB43094913400B607B6A01337B6219
:10138C003B681A687B6A22FA03F3002B7FF48EAE5B
:10139C0000BF00BF2C37BD4680BC70470004014025
:1013AC0080B483B000AF78600B467B8013467B70B3
:1013BC007B78002B03D07A887B681A6103E07B88EA
:1013CC001A047B681A6100BF0C37BD4680BC70479D
:1013DC0080B586B000AF78607B68002B01D101230B
:1013EC006CE27B681B6803F00103002B00F0878024
:1013FC00924B5B6803F00C03042B0CD08F4B5B6897
:10140C0003F00C03082B12D18C4B5B6803F4803374
:10141C00B3F5803F0BD1894B1B6803F40033002BD1
:10142C006CD07B685B68002B68D1012346E27B683B
:10143C005B68B3F5803F06D1804B1B687F4A43F451
:10144C00803313602EE07B685B68002B0CD17B4BE8
:10145C001B687A4A23F480331360784B1B68774AF5
:10146C0023F4802313601DE07B685B68B3F5A02F29
:10147C000CD1724B1B68714A43F4802313606F4B81
:10148C001B686E4A43F4803313600BE06B4B1B6894
:10149C006A4A23F480331360684B1B68674A23F451
:1014AC00802313607B685B68002B13D0FFF7E2FC92
:1014BC00386108E0FFF7DEFC02463B69D31A642B67
:1014CC0001D90323FAE15D4B1B6803F40033002BB5
:1014DC00F0D014E0FFF7CEFC386108E0FFF7CAFC4F
:1014EC0002463B69D31A642B01D90323E6E1534B23
:1014FC001B6803F40033002BF0D100E000BF7B68C5
:10150C001B6803F00203002B63D04C4B5B6803F0A9
:10151C000C03002B0BD0494B5B6803F00C03082B1E
:10152C001CD1464B5B6803F48033002B16D1434B24
:10153C001B6803F00203002B05D07B681B69012B91
:10154C0001D00123BAE13D4B1B6823F0F8027B6804
:10155C005B69DB00394913430B603AE07B681B691C
:10156C00002B20D0364B01221A60FFF783FC386128
:10157C0008E0FFF77FFC02463B69D31A022B01D926
:10158C0003239BE12D4B1B6803F00203002BF0D0CF
:10159C002A4B1B6823F0F8027B685B69DB00274948
:1015AC0013430B6015E0264B00221A60FFF762FC18
:1015BC00386108E0FFF75EFC02463B69D31A022B48
:1015CC0001D903237AE11D4B1B6803F00203002BA6
:1015DC00F0D17B681B6803F00803002B3AD07B68C2
:1015EC009B69002B19D0174B01221A60FFF742FCA4
:1015FC00386108E0FFF73EFC02463B69D31A022B28
:10160C0001D903235AE10D4B5B6A03F00203002B53
:10161C00F0D0012000F09AFA1CE00A4B00221A606C
:10162C00FFF728FC38610FE0FFF724FC02463B690A
:10163C00D31A022B08D9032340E100BF001002404B
:10164C0000004242800442429E4B5B6A03F002035C
:10165C00002BE9D17B681B6803F00403002B00F01E
:10166C00A6800023FB75974BDB6903F08053002B9E
:10167C000DD1944BDB69934A43F08053D361914B6A
:10168C00DB6903F08053BB60BB680123FB758E4B99
:10169C001B6803F48073002B18D18B4B1B688A4A90
:1016AC0043F480731360FFF7E5FB386108E0FFF744
:1016BC00E1FB02463B69D31A642B01D90323FDE0FD
:1016CC00814B1B6803F48073002BF0D07B68DB68C4
:1016DC00012B06D17B4B1B6A7A4A43F00103136240
:1016EC002DE07B68DB68002B0CD1764B1B6A754AAE
:1016FC0023F001031362734B1B6A724A23F0040339
:10170C0013621CE07B68DB68052B0CD16D4B1B6AEC
:10171C006C4A43F0040313626A4B1B6A694A43F038
:10172C00010313620BE0674B1B6A664A23F001034B
:10173C001362644B1B6A634A23F0040313627B68D5
:10174C00DB68002B15D0FFF795FB38610AE0FFF73B
:10175C0091FB02463B69D31A41F28832934201D97C
:10176C000323ABE0574B1B6A03F00203002BEED0B4
:10177C0014E0FFF77FFB38610AE0FFF77BFB0246C2
:10178C003B69D31A41F28832934201D9032395E085
:10179C004C4B1B6A03F00203002BEED1FB7D012B9B
:1017AC0005D1484BDB69474A23F08053D3617B68F2
:1017BC00DB69002B00F08180424B5B6803F00C036B
:1017CC00082B61D07B68DB69022B46D13F4B002292
:1017DC001A60FFF74FFB386108E0FFF74BFB02463E
:1017EC003B69D31A022B01D9032367E0354B1B68E5
:1017FC0003F00073002BF0D17B681B6AB3F5803FBC
:10180C0008D1304B5B6823F400327B689B682D4910
:10181C0013434B602B4B5B6823F474127B68196A7F
:10182C007B685B6A0B43274913434B60274B0122B0
:10183C001A60FFF71FFB386108E0FFF71BFB02463D
:10184C003B69D31A022B01D9032337E01D4B1B68CC
:10185C0003F00073002BF0D02FE01C4B00221A6019
:10186C00FFF708FB386108E0FFF704FB02463B6911
:10187C00D31A022B01D9032320E0124B1B6803F06F
:10188C000073002BF0D118E07B68DB69012B01D1D0
:10189C00012313E00B4B5B68FB60FB6803F48032A5
:1018AC007B681B6A9A4206D1FB6803F470127B6852
:1018BC005B6A9A4201D0012300E0002318461837D6
:1018CC00BD4680BD001002400070004060004242E6
:1018DC0080B584B000AF786039607B68002B01D193
:1018EC000123D0E06A4B1B6803F007033A689A4265
:1018FC0010D9674B1B6823F0070265493B681343FB
:10190C000B60634B1B6803F007033A689A4201D0E3
:10191C000123B8E07B681B6803F00203002B20D086
:10192C007B681B6803F00403002B05D0594B5B68E4
:10193C00584A43F4E06353607B681B6803F0080368
:10194C00002B05D0534B5B68524A43F460535360F1
:10195C00504B5B6823F0F0027B689B684D49134346
:10196C004B607B681B6803F00103002B40D07B6845
:10197C005B68012B07D1474B1B6803F40033002B2A
:10198C0015D101237FE07B685B68022B07D1414BAB
:10199C001B6803F00073002B09D1012373E03D4B4E
:1019AC001B6803F00203002B01D101236BE0394BC0
:1019BC005B6823F003027B685B68364913434B601A
:1019CC00FFF758FAF8600AE0FFF754FA0246FB6892
:1019DC00D31A41F28832934201D9032353E02D4BA1
:1019EC005B6803F00C027B685B689B009A42EBD14E
:1019FC00274B1B6803F007033A689A4210D2244B1A
:101A0C001B6823F0070222493B6813430B60204BF1
:101A1C001B6803F007033A689A4201D0012332E0B5
:101A2C007B681B6803F00403002B08D0194B5B6820
:101A3C0023F4E0627B68DB68164913434B607B68D8
:101A4C001B6803F00803002B09D0124B5B6823F4CE
:101A5C0060527B681B69DB000E4913434B6000F03E
:101A6C0021F802460B4B5B681B0903F00F030A4974
:101A7C00CB5C22FA03F3094A1360094B1B68184626
:101A8C00FFF7B6F9002318461037BD4680BD00BFDE
:101A9C000020024000100240041C0008000000203E
:101AAC000400002080B487B000AF0023FB6000234B
:101ABC00BB6000237B6100237B6000233B611E4BDA
:101ACC005B68FB60FB6803F00C03042B02D0082B53
:101ADC0003D027E0194B3B6127E0FB689B0C03F01C
:101AEC000F03174AD35C7B60FB6803F48033002B35
:101AFC0010D0114B5B685B0C03F00103114AD35CF3
:101B0C00BB607B680D4A02FB03F2BB68B2FBF3F3CC
:101B1C007B6104E07B680C4A02FB03F37B617B690D
:101B2C003B6102E0054B3B6100BF3B6918461C372B
:101B3C00BD4680BC704700BF0010024000127A0006
:101B4C00141C0008241C000800093D0080B485B05A
:101B5C0000AF78600A4B1B680A4AA2FB03235B0A9E
:101B6C007A6802FB03F3FB6000BFFB685A1EFA6045
:101B7C00002BF9D100BF00BF1437BD4680BC7047A5
:101B8C0000000020D34D621070B500260C4D0D4C9A
:101B9C00641BA410A64209D100F022F800260A4DBD
:101BAC000A4C641BA410A64205D170BD55F8043B29
:101BBC0098470136EEE755F8043B98470136F2E7B3
:101BCC00281C0008281C0008281C00082C1C0008D5
:101BDC0003460244934200D1704703F8011BF9E716
:101BEC00F8B500BFF8BC08BC9E467047F8B500BFFE
:081BFC00F8BC08BC9E467047CE
:101C040000000000000000000102030406070809A8
:101C140002030405060708090A0B0C0D0E0F101029
:041C240001020000B9
:041C2800310100087E
:041C2C000D0100089E
:0C1C300000127A0010000000010000000B
:0400000508000D855D
:00000001FF
